:100000000C947A000C9499000C9499000C9499002B
:100010000C9499000C9499000C9499000C949900FC
:100020000C9499000C9499000C9499000C949900EC
:100030000C9499000C94E30F0C9499000C942710E5
:100040000C943A110C94EB100C9424110C942F1175
:100050000C9473110C9499000C9499000C949900D1
:100060000C944F100C9499000C9499000C949900E6
:100070000C9499000C9499000C9499000C9499009C
:100080000C9499000C9499000C9499000C9499008C
:100090000C9499000C9499000C9499000C949E1166
:1000A0000C9499000C9499000C9499000C9499006C
:1000B0000C9499000C9499000C9499000C9499005C
:1000C0000C9499000C9499000C9499005C0BA90B6A
:1000D000020C4E0C960CD80CF20C310DB50DE80D3F
:1000E000B60E5C0E6F0EDE0E060F240F360F0002EA
:1000F0000E060C0411241FBECFEFD1E2DEBFCDBF30
:1001000012E0A0E0B2E0E0EEF7E200E00BBF02C0D8
:1001100007900D92A231B107D9F725E0A2E1B2E034
:1001200001C01D92A43BB207E1F70E941F120C947C
:10013000EE130C9400002F980895289A089580914A
:10014000FC038093BC0008959FB7F894809103044A
:100150008F5F809303049FBF08950DB407FEFDCF0A
:100160008EB50895982F0DB407FEFDCF8EB59EBDB8
:100170000895289808958627082E8295807F8025E7
:10018000092E982F82958F700826869598278927A3
:10019000880F880F880F80250895809111048F3F64
:1001A00071F0E82FF0E0EB5CFD4F9081909311042B
:1001B0009F3F11F49093A5059FEF908308958FEFD3
:1001C00008958091B0008093B0008091B60081FDC9
:1001D000FCCF08959FB7F894E82FF0E0EB5CFD4F5B
:1001E00020812F3FC9F421E030E0E091A505E81718
:1001F00011F020E030E0232B79F4209111042F3FFF
:1002000019F48093110404C0F0E0EB5CFD4F80838F
:100210008093A50580E001C085E09FBF089587E039
:100220000C94EA008FB7F8949091BC009093FC0373
:100230008FBF08952FB7F89480910C0290910D0212
:100240002FBF08950F931F932FB7F8948091ED035C
:100250009091EE03A091EF03B091F0030091840020
:1002600010918500B09B07C00196A11DB11D0091A2
:100270008400109185002FBF7727662720E030E0AB
:10028000602B712B822B932B1F910F91089540911E
:10029000840050918500EFB7F8942091840030914C
:1002A00085002D5F3F4FB901641B750B68177907F7
:1002B00018F49C01240F351F2115310511F421E09C
:1002C00030E021503109309389002093880082E08A
:1002D00086BB80916F00826080936F00EFBF0895AE
:1002E0000F931F93CF93DF938C012FB7F894C09196
:1002F0000104D0910204CE018F5E9E4F90930204C0
:10030000809301042FBF89E00E94EA00CE01B8016A
:100310000E948D138A5D9E4FDF91CF911F910F91A7
:1003200008952FB7F8943091B200809131029091E6
:100330003202A0913302B0913402B99B0FC04091B8
:10034000B3003091B200BC01CD016F5F7F4F8F4F82
:100350009F4F640F711D811D911D02C0BC01CD0115
:10036000630F711D811D911D2FBF0895CF93CFB7CE
:10037000F8948091150281110BC081E080931502E1
:10038000109205028CE00E94EA00CFBF80E01FC0FF
:10039000809161028F3FC9F481E090E0E091060214
:1003A000EE2311F080E090E0892B79F48091070230
:1003B0008F3F19F41092070204C0F0E0EF59FD4F8F
:1003C00010821092060280E001C085E0CFBFCF917D
:1003D0000895CF93CFB7F89480911602823029F513
:1003E00080910802811121C080910A028F3FB1F0F3
:1003F000E82FF0E0EF5AFD4F908190930A029F3F63
:1004000011F4909309029FEF90838093080281E09A
:100410008093160285E00E94EA0004C080930802DF
:1004200010921602CFBF80E002C0CFBF81E0CF9113
:100430000895CF93CFB7F89480911502823041F59B
:1004400080910502811124C0809107028F3FB1F095
:10045000E82FF0E0EF59FD4F9081909307029F3F06
:1004600011F4909306029FEF90838093050281E040
:10047000809315028CE00E94EA0004C0809305027C
:10048000109215028CB58F7B8CBDCFBF80E002C06F
:10049000CFBF81E0CF910895CF92DF92EF92FF928C
:1004A0000F931F93CF93CFB7F8942091B3009091FF
:1004B000B20087B3291711F081FF02C0CFBF78C007
:1004C00080915702811102C086EE3AC00E949101CC
:1004D00000912502109126022091270230912802D6
:1004E000C0901704D0901804E0901904F0901A04FA
:1004F000601B710B820B930B6C157D058E059F05A0
:1005000028F01092570286EE31E01BC0D701C601D9
:10051000800F911FA21FB31F4091310250913202F0
:100520006091330270913402841B950BA60BB70BBC
:10053000873E9105A105B10538F6823008F482E0C6
:1005400030E02FEF280F9091B60093FDFCCF9091F3
:10055000B200291301C0282F8091310290913202FC
:10056000A0913302B0913402AC01BD014F5F5F4FE7
:100570006F4F7F4F420F511D611D711D4817590765
:100580006A077B0710F4282F20958091B60083FD21
:10059000FCCF2093B300CFBF332351F083E0CF9142
:1005A0001F910F91FF90EF90DF90CF900C94EA0095
:1005B000CF911F910F91FF90EF90DF90CF90089512
:1005C000CF93DF931F92CDB7DEB789830E94B90026
:1005D000898180688EBD80E00E94B2000E94AD00DB
:1005E00089830E949D0089810F90DF91CF910895AA
:1005F0001F93CF93DF931F92CDB7DEB7182F698378
:100600000E94B900912F906C9EBD89810E94B2001A
:100610000E94AD000F90DF91CF911F910C949D002F
:10062000811110C08091BB0090910C04E0914C02AC
:10063000F0914D02E90FF11D808380910C048F5FD2
:1006400080930C0420910C0480911C02281788F4DC
:1006500030E090E001972817390749F48091A80508
:1006600082FD05C08091FC038F7B8093FC030C947A
:100670009F008091FC03282F2E7F9091A80591FF69
:100680000AC09D7F9093A805822F80618093FC0310
:100690008091B90003C08E778093FC030E949F0075
:1006A00081E08093130280910002811106C081E0F5
:1006B0000E94EA0082E00C94EA0008958F929F92D3
:1006C000AF92BF92CF92DF92EF92FF920F931F9360
:1006D000E091F903E1FF32C0C090F103D090F20342
:1006E000E090F303F090F4038090F5039090F6030C
:1006F000A090F703B090F8038B019C010C191D0921
:100700002E093F09081519052A053B05B8F0E0FF39
:1007100004C0ED7FE093F9030EC0D501C4018C0D38
:100720009D1DAE1DBF1D8093F1039093F203A09316
:10073000F303B093F40380E00E94EA0084E01F9189
:100740000F91FF90EF90DF90CF90BF90AF909F9070
:100750008F900C94EA008CB58F7B8CBD229A2398E5
:10076000219A209A8CB580618CBD8CB58F778CBD19
:100770008CB5877F8CBD8CB58B7F8CBD8CB5806430
:100780008CBD8DB581608DBD8CB58C7F8CBD089581
:10079000CF938FB7F89490910502911106C0909174
:1007A0001502923011F48FBF0FC08FBFCFB7F894EE
:1007B0008091150281110AC082E080931502109287
:1007C00005020E94AB03CFBF81E004C0CFBF0E94EF
:1007D000B60180E0CF910895CF93DF93FC01828131
:1007E00090E0982F88272181822B85FF14C0877481
:1007F0009C7C8134984879F4C781D0E0DC2FCC27E9
:100800008681C82B0E941A0121E0C817D90709F078
:1008100020E0822F01C080E0DF91CF910895811107
:1008200030C082B122E0822782B980910E0290917D
:100830000002911129C030911302313029F5209323
:10084000130290E0909359028093580283EA95E056
:1008500090934D0280934C0220931C021092A805A5
:1008600010920C04309312020E9412018091FC033A
:100870008F7A816C8093FC0383E0809313020C9445
:100880009F0082E00C94EA00089580910C049091FE
:100890001C02891780F4E0914C02F0914D02E80FA0
:1008A000F11D80818093BB0080910C048F5F809349
:1008B0000C040C949F008091FC03282F2E7F9091B4
:1008C000A80591FF06C09D7F9093A805822F8061A7
:1008D00001C08E778093FC030E949F0081E080938B
:1008E000130280910002811102C00C940F0408953C
:1008F000CF93DF931F92CDB7DEB789830E94120199
:100900009091FC039A7F9093FC030E949F000E94A9
:1009100012019091FC0394609093FC030E949F004D
:1009200091E090931302209112029091000289812C
:10093000222369F0911112C0811103C081E00E944D
:10094000EA0082E00F90DF91CF910C94EA009111C0
:1009500005C00F90DF91CF910C940F040F90DF91A1
:10096000CF9108953F924F925F926F927F928F92B4
:100970009F92AF92BF92CF92DF92EF92FF920F932E
:100980001F93CF93DF9300D000D0CDB7DEB79C8309
:100990008B838091190281114BC08091A105853014
:1009A00009F046C080910B04811142C00E94C80327
:1009B0008823F1F1CB80DC802EE7C20ED11CF6013A
:1009C000808182FF07C0EB81FC81E158FF4F61818C
:1009D0006F7001C060E080916503681731F060932B
:1009E0006503606885E00E94F802EB81FC818281EA
:1009F00090E0982F88272181822B87749C7C8134FA
:100A00009848C1F486E00E94E0028F7190E0409126
:100A10005E022091520230E0240F311DF3E0359543
:100A20002795FA95E1F72817390724F40E9419024F
:100A300085E0A8C069E082E00E94F8020E942201DD
:100A40002B013C010B811C810F5F1F4FEB81FC814F
:100A5000F080F6018081EEEF3E2E3F0C84FF0AC04D
:100A60007BEF872E8F0C2B813C81201B310B820E5C
:100A7000381802C0832C312C81E00E94E0028F7173
:100A8000893029F066E082E00E94F802CFCF8FB76C
:100A9000F8942F9AA0908400B09085008FBF0E9498
:100AA0009B000E94B90080E68EBD8F2D0E94B2008F
:100AB0007801982C900EF70181917F010E94B2007D
:100AC0009E10F9CF8A94912C7801E80CF91CA401AE
:100AD0004F5F5F4F400F511F95012E553F4F241917
:100AE00035094901AA2497FCA094BA2C840C951CC2
:100AF000A61CB71C332059F1F70181814280512C8B
:100B0000612C712C320155244424782A8481482A8E
:100B10008381582AD301C20188199909AA09BB09FE
:100B200084839383A283B18310E0FA01E10FF11D66
:100B3000808149835A830E94B2001F5F49815A8194
:100B40001311F3CFF70144825382628271820E94B3
:100B5000AD000E949D0066E082E00E94F802F6016E
:100B6000808182608083EB81FC81E658FF4F808228
:100B70009182A282B38286E08093A10584E0809373
:100B8000190280E00F900F900F900F90DF91CF919E
:100B90001F910F91FF90EF90DF90CF90BF90AF909B
:100BA0009F908F907F906F905F904F903F900895AF
:100BB0003F924F925F926F927F928F929F92AF92ED
:100BC000BF92CF92DF92EF92FF920F931F93CF933A
:100BD000DF9300D01F92CDB7DEB764E0F62E70E849
:100BE000972EE5E0EE2EF3E0DF2EA9E08A2EB2E0AC
:100BF000CB2E18E0B12E00E2A02E8091FD038230B2
:100C000009F096C01092FD0320916202223009F48F
:100C100072C0233009F47AC0213009F089C0809174
:100C20008400909185006090E9037090EA03681A4F
:100C3000790A80915602803851F4109256028091C0
:100C40005502823009F074C0209355025CC087FFC2
:100C500003C016141704F4F00091530210915402CB
:100C600080913002811116C0C8010E94B204282F61
:100C7000811111C0F801E258FF4F80818E7F80837F
:100C800081E0809330021093A7050093A605D092CF
:100C900056024EC025E080915602982F9F779130E2
:100CA00081F4807882608093560280E198E00E940F
:100CB000700121E0209362022093FD030E9447010E
:100CC00037C087FF10C0161417046CF490925602B8
:100CD00081E0809362028093FD03C30129830E9417
:100CE0004701298102C01092560220931B0481E023
:100CF0008093550208C01092300210925602109252
:100D00001B04F09255020E940F0112C08091A105B0
:100D1000823019F42093A10509C080911902863010
:100D200029F41092190281E00E94E0020E94000B57
:100D300080910B04882309F4D0C08091A1058130F3
:100D400009F4CBC00E94C803882309F4C6C08FB73A
:100D5000F89460905F02709060028FBF10920B0455
:100D60008FE00E94E002182F809119028B7F833060
:100D700021F4E092A105B092190212FF51C08091B6
:100D80001902863011F41092190280911902811112
:100D900047C01430D1F586E00E94E0028F71909137
:100DA0005202292F26952695921B980F9093520256
:100DB0002091290230912A02F901E258FF4F9081D7
:100DC0009B7F98609083319681830E942201A301CA
:100DD00047505109461B570B2A01662457FC609463
:100DE000762C2091290230912A02F901E258FF4F16
:100DF0004081426040833497460E571E681E791E1C
:100E0000408251826282738209C0E0912902F0918E
:100E10002A02E258FF4F8081857F8083E092190289
:100E200013FF5BC080911902843009F045C0E09245
:100E3000A1051092190280913002833019F41092AA
:100E400030024BC0E091A605F091A705828190E0A9
:100E5000982F88272181822B85FF23C087749C7C53
:100E600081349848F1F4878190E0982F8827268173
:100E7000822B21E030E0019611F420E030E0232BBA
:100E800081F08091FD0381110CC0C092620281E06B
:100E90008093FD0389E993E00E944701C0923002EC
:100EA0001CC0109230021092560210921B04F09255
:100EB00055020E940F0111C0853079F486E00E942E
:100EC000E00290915E02292F26952695921B8F7144
:100ED000980F90935E0280921902809119028823E4
:100EE00009F453C2893009F0C4C10E94B900AEBCF4
:100EF0000DB407FEFDCF8EB51EBC0DB407FEFDCFB1
:100F00008EB59DEF980F993708F075C01EBCE09123
:100F10002902F0912A023F015FEF651A750A80836A
:100F20003EEF432E480E86E0841518F427E0522E3B
:100F300001C0542C6A827B8200E010E0352C360C14
:100F400080E00E94B200AA81BB818D93BB83AA83FB
:100F5000682FC8010E94BB008C01BA813B12F0CF00
:100F60008FEF850D90E00196860D971DE091290287
:100F7000F0912A0221812770223029F42091300239
:100F80002230B9F50BC03FB7F89421E04091050439
:100F9000433008F020E03FBF222359F1742C75182C
:100FA0002C01780E80E0741459F00E94B200F20116
:100FB00081932F01682FC8010E94BB008C01F2CFE2
:100FC0000E94B200682FC8010E94BB008C0180E023
:100FD0000E94B200682FC8010E94BB008C010E94D1
:100FE000AD00E0912902F0912A02E158FF4F808381
:100FF00004C00E94AD0001E010E00E949D00E0925C
:10100000A10510921902012B09F0B6C140902902E6
:1010100050902A02D20111968C911197877090916D
:101020003002823039F5923009F01EC1E091A605F8
:10103000F091A70513969C918381981315C1809117
:101040006F008D7F80936F001092FD03E091A605E5
:10105000F091A705E258FF4F808181608083109254
:1010600030021092560210921B04F09255020E9418
:101070000F01FAC0911117C0C2010E94EC0388232E
:1010800091F0E0926603C092670310926803F20148
:1010900083818093690386E693E00E94B204811104
:1010A00002C0D09230020091840010918500C201EC
:1010B0000E94EC03882311F0045E1C4F1093EA0396
:1010C0000093E90380918400909185009801281B8A
:1010D000390BC90118161906ACF4209156022111DA
:1010E0000EC02091FD0321110DC021E0209362026A
:1010F0002093FD030E9447019092560203C020688E
:1011000020935602D20119962C91199730E0322F74
:10111000222718968C91282B8091A205A82FB0E049
:10112000FD01EE0FFF1FE655FA4F4081518160919E
:10113000A9054217530759F4AA5BBD4F9C91961716
:1011400009F460C06F5F6093A9056C931BC0AAEAA5
:10115000B5E0E6E4F2E080E090E000E010E0782F17
:101160004D915D914217530779F48093A205FC01DC
:10117000EA5BFD4F2081261709F444C06F5F60933E
:10118000A905608340E825C04191562F541B452F87
:10119000151710F0702F412F01968530910519F029
:1011A000072F142FDCCF7093A205872F90E0FC014E
:1011B000EE0FFF1FE655FA4F318320836F5F609378
:1011C000A905FC01EA5BFD4F6083FC01E55DFD4F75
:1011D00010828091A905982F9F779F3719F08091F1
:1011E000A20510C04F37D8F3E6E4F2E0282F2078AC
:1011F00090819F6798132083319692E0EB34F90732
:10120000B9F7EDCFD20113969C91E82FF0E0DF0102
:10121000A55DBD4F8C91EA5FFB4F80FF04C08081CC
:10122000981303C021C081608C9390831FB7F894FA
:10123000809105048330B8F4E0911404E80FE330A2
:1012400008F0E350F0E0EE0FFF1FE35EFD4F70800B
:101250000181518240828F5F8093050488E00E9463
:10126000EA00472C502E1FBF50922A0240922902BA
:1012700083C09FEF980F933008F069C09EEF980FDE
:101280009230C0F51091A105113089F48091FD03D1
:10129000811130C00E949B00D09262021093FD0326
:1012A0008BE293E00E944701C092A1053DC08330CC
:1012B00009F51330F9F40E94C8038823D9F08FE0B0
:1012C0000E94E00280918100806480938100A6BA30
:1012D00080916F00806280936F0060914E02606623
:1012E00088E00E94F80266E082E00E94F802F09234
:1012F000A1051AC08091190281508230A8F4809112
:10130000A105853089F40E94C803882369F063E051
:1013100082E00E94F80280916F008F7D80936F00C1
:1013200010920B04D092A10580911902813041F4F2
:101330009091A105933001F52F9A8093A1051AC0D1
:101340008230D1F48091A1058330B1F413C087308D
:1013500099F40E94C803882379F060914E02606678
:1013600088E00E94F8028091A105853019F4F0927E
:10137000A10502C0B092190280911902883029F4A7
:101380001092190286E00E94EA00809119028111F0
:101390001DC08091A1058530C9F480910B04811195
:1013A00015C080913002811111C0809156028111C7
:1013B0000DC08091FD03811109C0809155028230DA
:1013C00029F481E0809355020E940F018091190257
:1013D000811103C08AE00E94EA008FB7F8949091CF
:1013E00003049130C1F4109203048FBF0F900F904B
:1013F0000F90DF91CF911F910F91FF90EF90DF90B1
:10140000CF90BF90AF909F908F907F906F905F90A4
:101410004F903F90089591E0909303048FBFEDCBE0
:101420009FB7F8948091030481508093030480381F
:1014300011F09FBF089581E0809303049FBF0C9437
:10144000D8050F931F93CF93DF931F92CDB7DEB7CD
:101450008C018FE3F8018287809118028F5F80935F
:10146000180283830E94A4008091550281110DC04F
:10147000109300040093FF0381E0809355021092C3
:10148000FE030E940F0180E001C085E089830E9475
:10149000100A89810F90DF91CF911F910F910895CC
:1014A000EF92FF921F93CF93DF9300D0CDB7DEB7BB
:1014B000182F7A012F3608F078C0FA01428150E0E7
:1014C000542F44278181482BFA01E774FC7CE134D6
:1014D000F84841F04073552741645868F70141834B
:1014E00088E88283235FF701208369837A830E94DF
:1014F0001A01F701808791879FB7F89480910B02BA
:101500009FBFF701848315821387698166837A817F
:1015100077838FB7F89490911602911110C092E0E2
:1015200090931602109208028FBFC7010E94210AF1
:10153000182F8823C1F00E94E901812F37C08FBF87
:10154000F0925002E0924F021FB7F8948091160279
:1015500081110BC081E0809316021092080285E091
:101560000E94EA001FBF80E021C0809151028F3F9E
:10157000C9F481E090E0E0910902EE2311F080E0EF
:1015800090E0892B79F480910A028F3F19F4109230
:101590000A0204C0F0E0EF5AFD4F108210920902D7
:1015A00080E001C085E01FBF01C086E00F900F9072
:1015B000DF91CF911F91FF90EF900895E82FF0E019
:1015C000EE0FFF1FE551FC4F1182108291E09093C6
:1015D0000402811105C0645E724011F4109217027A
:1015E00008952091040221110AC06091EB037091CB
:1015F000EC036817790719F480E00C94DE0A08956B
:101600008FB7F89490910304992329F090689093F0
:1016100003048FBF089591E0909303048FBF0C944F
:10162000D805CF93DF931F92CDB7DEB70E94A400F9
:1016300080915502811119C080911902811115C044
:101640008091A105813029F48091FD0381110DC0A5
:1016500002C0853099F083E0809319020E94000B4C
:1016600085E08093550280E001C085E089830E9477
:10167000100A89810F90DF91CF91089589E0F6CF0C
:101680002F923F924F925F926F927F928F929F9292
:10169000AF92BF92CF92DF92EF92FF920F931F9380
:1016A000CF93DF9390E08131910508F074C4FC0181
:1016B000EA59FF4F0C94A1138FB7F894909114023C
:1016C0009111D2C392E090931402109204048FBF40
:1016D000CFB7F89480911302811118C05098519897
:1016E0001092B90081E48093B8001092BA00109271
:1016F000BC000E9412018091FC038E7F8460809365
:10170000FC030E949F0081E080931302CFBFCFB7FC
:10171000F89480910102813089F480911402813023
:1017200021F48FE00E94EA0009C0823039F48091F0
:1017300004048093010283E080931402CFBF809160
:101740000102882309F4A0C38FB7F8941092140201
:101750008BC38091170281111EC480EF92E0892B08
:1017600009F419C483EA95E090932402809323023C
:101770009091A3058091A4059093F1028093F002CB
:101780001092F3021092F2021092F5021092F402FB
:101790001092F7021092F6021092F9021092F802DB
:1017A0008FEF8093EA028093EB0281E28093EF0255
:1017B0008091EB039091EC03892B09F0ECC384EE4C
:1017C00092E09093EC038093EB0387E18093E40233
:1017D00080910402882309F49FC3109204022AE036
:1017E00044EE52E06FEF7FEF81E20E94500A8823BF
:1017F00009F492C381E0809304021092EC031092EA
:10180000EB03C9C3CFB7F8940E9412018091FC0387
:101810008E7F80698093FC030E949F00CFBFCFB76B
:10182000F89480911402833009F02CC38091010256
:10183000811128C3809103028F3FC1F0E82FF0E0AF
:10184000EB5EFB4F9081909303029F3F11F49093C6
:1018500002029FEF9083809304049093010281E041
:10186000809314028FE00E94EA000CC381E0809311
:1018700001021092140280911302813009F002C318
:101880000E9412018091FC038A768093FC030E94DF
:101890009F005898599810921302F4C280914B02FD
:1018A000811141C040910D0450910E0460910F04CC
:1018B000709110042FB7F894809117049091180438
:1018C000A0911904B0911A04C0902502D09026026C
:1018D000E0902702F09028028C0D9D1DAE1DBF1DCB
:1018E0002FBF40930D0450930E0460930F04709328
:1018F000100410924B022FB7F89431E03093570246
:101900008093250290932602A0932702B093280289
:1019100040931704509318046093190470931A04A9
:101920002FBF0E944C020E9491012EC00E94910183
:101930002FB7F894109257022FBF2091F90321FF7F
:101940002AC3C090F103D090F203E090F303F0902B
:10195000F4039B01AC012C193D094E095F098090ED
:10196000F5039090F603A090F703B090F803821A65
:10197000930AA40AB50A3FEF83169306A3063FE72E
:10198000B30609F0CDC207C3DF91CF911F910F912C
:10199000FF90EF90DF90CF90BF90AF909F908F908F
:1019A0007F906F905F904F903F902F900C945E03CC
:1019B0008FB7F89492E0909316028FBF809108023F
:1019C0008111E9C280914F02909150020E94210A38
:1019D000882309F4E0C20E94E90180914F029091AE
:1019E000500289C08091550210925502853089F5C8
:1019F0000E9491016093F1037093F2038093F303CB
:101A00009093F40380ED97E0A0E0B0E08093F503BD
:101A10009093F603A093F703B093F8038091F90332
:101A20008E7F82608093F90384E0DF91CF911F91D4
:101A30000F91FF90EF90DF90CF90BF90AF909F906D
:101A40008F907F906F905F904F903F902F900C946D
:101A5000EA009AEF980F923008F49DC280935502E5
:101A60009AC20E94A400C0915502C13089F58091AC
:101A7000FE038F5F8093FE03863050F58091FF0355
:101A80009091000420915602211116C02091FD036F
:101A9000211112C09093540280935302C0935602B6
:101AA0008BED91E10E947001C0936202C093FD032F
:101AB0000E94470180E001C085E080931B048111F2
:101AC00002C083E001C082E080935502C0E003C001
:101AD00010925502C1E00E94100ACC2309F45BC2A7
:101AE000C091FF03D09100048A858F3309F053C25F
:101AF0000E94E901CE01DF91CF911F910F91FF90DC
:101B0000EF90DF90CF90BF90AF909F908F907F909D
:101B10006F905F904F903F902F900C94F10AE0915E
:101B20001404F0E0EE0FFF1FE35EFD4FC081D18192
:101B30008FBF88819EEF980F9930F0F49FB7F8948B
:101B400080911404E82FF0E0EE0FFF1FE35EFD4FDD
:101B5000D183C0838F5F8330C0F58093140480915C
:101B600005048150809305049FBF8FB7F89490912E
:101B700005049111D4CF78C19A859F3399F48B5085
:101B80008230E0F2EF80F12CFE2CEE248E81E82AE8
:101B90004FEFE416F406A9F00E941A01E816F906C0
:101BA00069F60FC0EF80F12CFE2CEE248E81E82A1E
:101BB0000E941A01E816F90621F0EF20E09409F0DE
:101BC000BDCF8FB7F8948FBFB9CF10921404C7CF91
:101BD000EFB7F89480915A0290915B02A0915C0259
:101BE000B0915D021C012D019C01A20160E070E03A
:101BF00080E090E003E00E94A71351016201E12C14
:101C0000F12C00E010E00E94DE1359016A017B0113
:101C1000F82F192F03E00E94A7130F2F0E94DE1345
:101C200059016A017B01F82F192F03E00E94A713C5
:101C30000F2F0E94DE1359016A017B01F82F192F23
:101C400003E00E94A7130F2F0E94DE1359016A01BF
:101C50007B01F82F192F03E00E94A7130F2F0E947A
:101C6000DE1301E00E94A71329013A0100E20E945D
:101C7000C21349015A01D301C201B695A7959795A0
:101C80008795880D991DAA1DBB1DB7FF04C0BF779E
:101C90000196A11DB11D80935A0290935B02A093FF
:101CA0005C02B0935D02EFBF2FB7F89490930204EB
:101CB000809301042FBF6FC18FB7F8941092FB037C
:101CC0001092FA031092A00510929F0510921B0229
:101CD00010921A021092E8031092E703C5C0CFB722
:101CE000F89482E0809315020E94AB03CFBF8091ED
:101CF0000502811150C18091A10581114BC08EEF69
:101D000091E0019701960197E1F716980E949B00D8
:101D100086E090E0019701960197E1F7169A60E05E
:101D200083E00E94F80268E082E00E94F8028EEFF1
:101D300091E0019701960197E1F76DE48EE00E9432
:101D4000F80267EC89E00E94F80260E885E00E94F2
:101D5000F802109265038AE180934E026AE788E0F8
:101D60000E94F8022F9A81E08093A105DF91CF9124
:101D70001F910F91FF90EF90DF90CF90BF90AF90A9
:101D80009F908F907F906F905F904F903F902F909B
:101D90000C941902DF91CF911F910F91FF90EF905A
:101DA000DF90CF90BF90AF909F908F907F906F907B
:101DB0005F904F903F902F900C94000B2091160451
:101DC000222309F4E8C060911702EBEEF3E040E053
:101DD00051E0822F852381F08081918111821082D0
:101DE000352F30953223411106C0845E924019F49C
:101DF000232F60E001C0232F550F4F5F32964830EC
:101E000041F72093160460931702C5C08091040225
:101E1000E82FF0E0EE0FFF1FE551FC4F608171816C
:101E2000DF91CF911F910F91FF90EF90DF90CF90B6
:101E3000BF90AF909F908F907F906F905F904F90EA
:101E40003F902F900C94DE0A8FB7F8949091040481
:101E50009093010293E0909314028FBF909101023E
:101E60008FB7F894909300028FBF95C0CFB7F894C6
:101E700080911202882321F081E00E94100302C0A9
:101E80000E944504CFBF87C08FB7F894109200021C
:101E90008FBF9FB7F89482B121E0822782B99FBF9C
:101EA00080910E029FB7F89420910002211132C058
:101EB0009FBF9FB7F89420911302213059F522E07B
:101EC000209313029FBF2FB7F89490E0909359028C
:101ED000809358028FE092E090934D0280934C02E1
:101EE00081E080931C028093A80510920C0410924C
:101EF00012022FBF0E941201CFB7F8948091FC0309
:101F00008F7E816E8093FC0384E0809313020E9495
:101F10009F00B8CF9FBF3FC081E0809317023BC0B6
:101F2000181419041A041B040CF02ECD80920D0411
:101F300090920E04A0920F04B092100421E020931E
:101F40004B022FB7F89431E030935702609325028B
:101F500070932602809327029093280280921704A0
:101F600090921804A0921904B0921A042FBFDF9126
:101F7000CF911F910F91FF90EF90DF90CF90BF9086
:101F8000AF909F908F907F906F905F904F903F9019
:101F90002F900C944C02DF91CF911F910F91FF90E5
:101FA000EF90DF90CF90BF90AF909F908F907F90F9
:101FB0006F905F904F903F902F9008958FB7F89457
:101FC00008958FBF08951F920F920FB60F9211249C
:101FD0000BB60F922F933F934F935F936F937F9323
:101FE0008F939F93AF93BF93EF93FF930E94E10072
:101FF0002091B30030E02F5F3F4F809131029091EC
:102000003202A0913302B0913402820F931FA11DBE
:10201000B11D8093310290933202A0933302B093AA
:10202000340278940E944C02FF91EF91BF91AF91DE
:102030009F918F917F916F915F914F913F912F91E0
:102040000F900BBE0F900FBE0F901F9018951F9210
:102050000F920FB60F9211240BB60F922F933F934E
:102060004F935F936F937F938F939F93AF93BF93A0
:10207000EF93FF930E94E100FF91EF91BF91AF9129
:102080009F918F917F916F915F914F913F912F9190
:102090000F900BBE0F900FBE0F901F9018951F92C0
:1020A0000F920FB60F9211240BB60F922F933F93FE
:1020B0004F935F936F937F938F939F93AF93BF9350
:1020C000EF93FF932EB58091FA039091FB03009755
:1020D00039F0E091E703F091E803E80FF91F20835E
:1020E0008091E7039091E80301969093E803809331
:1020F000E7038CB58F778CBD8091E7039091E8035F
:1021000060911A0270911B028617970708F03FC072
:1021100020919F053091A005E091FA03F091FB0317
:10212000AC01465F5F4F6417750708F4AB0141507F
:10213000510984179507C8F42115310549F0D901D3
:10214000A80FB91F6C916EBD0DB407FEFDCF04C082
:102150001EBC0DB407FEFDCF6EB5309721F0DF0138
:10216000A80FB91F6C930196E4CF4CB540684CBDE5
:102170002115310531F0F901E80FF91F20812EBD3D
:1021800001C01EBC9093E8038093E70311C0109236
:10219000FB031092FA031092A00510929F05109273
:1021A0001B0210921A021092E8031092E7038EB5F8
:1021B000FF91EF91BF91AF919F918F917F916F911F
:1021C0005F914F913F912F910F900BBE0F900FBEDB
:1021D0000F901F90189578941F920F920FB60F9240
:1021E00011240BB60F922F933F934F935F936F93EE
:1021F0007F938F939F93AF93BF93EF93FF938091C0
:102200006F008D7F80936F0078948FB7F8949091D2
:10221000FD03913019F492E09093FD038FBF0E946B
:10222000000BFF91EF91BF91AF919F918F917F91A3
:102230006F915F914F913F912F910F900BBE0F9037
:102240000FBE0F901F90189578941F920F920FB6A3
:102250000F9211240F900FBE0F901F901895789435
:102260001F920F920FB60F9211240F900FBE0F9076
:102270001F90189578941F920F920FB60F92112409
:102280000BB60F922F933F934F935F936F937F9370
:102290008F939F93AF93BF93EF93FF93E6E8F0E0A4
:1022A00080819181808191812FB7F8949093600211
:1022B00080935F0281E080930B042FBF0E94000B8C
:1022C000FF91EF91BF91AF919F918F917F916F910E
:1022D0005F914F913F912F910F900BBE0F900FBECA
:1022E0000F901F90189578941F920F920FB60F922F
:1022F00011242F938F939F93AF93BF932FB7F8948D
:102300008091ED039091EE03A091EF03B091F00363
:102310000196A11DB11D8093ED039093EE03A09350
:10232000EF03B093F0032FBFBF91AF919F918F91B7
:102330002F910F900FBE0F901F9018951F920F9224
:102340000FB60F9211240BB60F922F933F934F931A
:102350005F936F937F938F939F93AF93BF93EF930D
:10236000FF930E9412012091B900822F887F9091E3
:102370001302943079F1963021F0933009F04CC07B
:1023800013C090911202913049F4803429F483E013
:102390008093130281E010C084E016C08831E1F719
:1023A00083E08093130213C090911202913039F4AC
:1023B000207F203541F480E00E9410032DC0883238
:1023C00031F0803321F081E00E94780425C00E9422
:1023D000450422C09091A8059E7F9093A8059091F6
:1023E000FC039F7D9093FC03883011F0803159F7F6
:1023F00090649093FC0391E080911202813009F087
:1024000090E080915802880F892B8093BB0086E072
:10241000809313020E949F00FF91EF91BF91AF91B3
:102420009F918F917F916F915F914F913F912F91EC
:102430000F900BBE0F900FBE0F901F901895CFB747
:10244000F89414BE88E10FB6F8948093600010925F
:1024500060000FBE41E150E06FEF70E085E392E075
:102460000E94E7138FEF809311048093A50556987F
:102470005E9854985C9880916F008F7D80936F0078
:10248000209A0E949D00279A0E949B000E9A169AFD
:1024900083E692E090932A028093290210925E02D2
:1024A0008AE58093520281E08093810080E28093EC
:1024B000B60083E08093B100809184009091850004
:1024C0004AE720918400309185002817390708F4E5
:1024D0004150442311F0C901F4CF8091B200909192
:1024E000B2009817E1F3209184003091850080912B
:1024F000B2009091B2009817E1F38091840090911E
:1025000085004096821B930BE5E096958795EA95AA
:10251000E1F790931304809312041092B10010928B
:1025200081001092B6001092B200109285001092B5
:1025300084008FEF87BB86BB8091B6008571E1F781
:102540000A9A099A089A129A119A109A18B88FEF53
:1025500087B90C981498109285001092840080918D
:102560006F00816080936F0080918100887F82601E
:10257000809381000E94CD00D82F8F3F19F00E94D8
:10258000400BF8CF80931504809361020E94B6013E
:102590002091100230911102A9014F5F5F4F60E05E
:1025A00070E040935A0250935B0260935C02709318
:1025B0005D024CE154E050931E0240931D024DE930
:1025C00054E05093200240931F024EE155E0509397
:1025D0002202409321022295207F20931802D0935B
:1025E00051028FEF9FEF9093AB058093AA059093D4
:1025F000AD058093AC059093AF058093AE059093A5
:10260000B1058093B0059093B3058093B205809196
:10261000B60080628093B6008091B60081FDFCCF49
:1026200082E08093B0008091B60080FDFCCF83E013
:102630008093B1008091B60083FDFCCF86EE80933D
:10264000B300809170008260809370000E944C0201
:102650000E94CD008F3F19F00E94400BF9CFCFBFF1
:1026600078940E94110BCFB7F8940E94CD008F3F51
:1026700009F04FC080917000837099F08091B6008E
:102680008A71E1F78091B3009091B200891B8C3080
:1026900010F492E007C08091B200853FD0F793E03C
:1026A00001C095E080916E008670E9F480916F0022
:1026B0008E72C9F4809171008E72A9F40CB407FC7B
:1026C00012C08091C100887171F48091C900887135
:1026D00051F48091BC0082FD06C080917A0087FF92
:1026E00004C0E1E003C0E0E001C0E5E083B79E176D
:1026F00008F4E92FF0E0E251FF4FE491807F816020
:102700008E2B83BF78948895F89483B78E7F83BF90
:10271000ACCFCFBF0E94400BA6CFAA1BBB1B51E181
:1027200007C0AA1FBB1FA617B70710F0A61BB70B41
:10273000881F991F5A95A9F780959095BC01CD01E6
:102740000895EE0FFF1F0590F491E02D09940F936B
:10275000083090F0982F872F762F652F542F432F16
:10276000322F22270850F4CF220F331F441F551F4A
:10277000661F771F881F991F0A95B2F70F9108955A
:1027800097FB10F8169400080F93083098F0085043
:10279000232F342F452F562F672F782F892F902DD9
:1027A000F4CF0594979587957795679557954795B5
:1027B000379527950A95AAF70F9108952A193B098D
:1027C0004C095D096E097F09800B910B0895DC01AE
:1027D00001C06D9341505040E0F70895F894FFCF49
:1027E000FF01FFFF01FFFFFFFFFFFF220100100FAE
:0227F0000100E6
:00000001FF
